:100000000C942A010C9447010C9447010C9447016D
:100010000C9447010C9447010C9447010C94470140
:100020000C9447010C9447010C94841E0C94571FA8
:100030000C94A1190C9447010C9447010C944701AE
:100040000C9447010C9447010C9447010C94470110
:100050000C9447010C94391A0C9447010C944701F5
:100060000C9447010C9447010C9447010C944701F0
:100070000C9447010C9447010C9447010C944701E0
:100080000C9447010C9447010C9447010C944701D0
:100090000C9447010C9447010C9447010C944701C0
:1000A0000C9447010C9447010C94470129136152A9
:1000B000A800B500B100B30006011901B200291370
:1000C0000100000011131D051A072F01300127013F
:1000D0001A036D006100630072006F007000610020
:1000E00064005F0033007800330000001A036D00E5
:1000F000610068006D00750064002D0061007300F0
:1001000068006900710000000403090409023B0053
:10011000020100A0FA090400000103010100092105
:1001200011010001224400070581030800010904B0
:100130000100010300000009211101000122B600A5
:10014000070582032000011201000200000008EDF3
:10015000FE000000010102000105010902A1018564
:10016000020901A1000509190129081500250195B9
:1001700008750181020501093009311581257F9536
:10018000027508810609381581257F95017508815A
:1001900006050C0A38021581257F95017508810630
:1001A000C0C005010980A101850319012AB7001506
:1001B0000126B700950175108100C0050C0901A149
:1001C00001850419012AA002150126A002950175D6
:1001D000108100C005010906A1018506050719E087
:1001E00029E7150025019508750181020507190009
:1001F00029EF1500250195F0750181020508190107
:100200002905950575019102950175039101C005B8
:10021000010906A101050719E029E7150025019547
:1002200008750181029501750881010507190029EA
:10023000FF150026FF0095067508810005081901C5
:100240002905150025019505750191029501750394
:100250009101C00011241FBECFEFDAE0DEBFCDBF99
:1002600011E0A0E0B1E0E4ECF4E402C005900D92EE
:10027000AA39B107D9F722E0AAE9B1E001C01D927D
:10028000A53AB207E1F70E94E2100C94CF210C943A
:1002900000001F93CF93DF93D82FC62F0E946711C2
:1002A000182F882351F08091AA019091AB010E94F0
:1002B0008D02882339F0813071F0812FDF91CF9149
:1002C0001F910895D111F9CF89EAC11101C08AEABD
:1002D0000E94C403F2CFD111F0CF8CEDC111F8CF41
:1002E0008BEDF6CF269A0895CF93DF93D82FC92FA1
:1002F00061E00E94A606882331F02E9A8D2F9C2F54
:10030000DF91CF9108952E98F9CF8230C0F46330F9
:10031000B0F44330A0F470E0FB01EE0FFF1FE60FD6
:10032000F71FE40FF11D99E0899FE00DF11D1124E5
:10033000EE0FFF1FE455FF4F85919491089581E0E2
:1003400090E008950E948501089581E008950E943B
:10035000A501089581E008950E94A50108950E94D5
:10036000AC01089508950E94B2010895A6E0B0E09E
:10037000ECEBF1E00C942B2149835A839E8330915E
:10038000A10189819A8131111AC03E81332399F0EC
:10039000222389F00E949407182F682F89819A815F
:1003A0000E946B0769817A81812F0E94A40E269694
:1003B000E3E00C9447210E947F07182FF3CF0E949F
:1003C000940769817A81F1CFFC01262F4081518108
:1003D00062817381848195810E94B6010895CF93D3
:1003E000DF93D82FC92F61E00E94E4016D2F7C2F8D
:1003F0000E94A701DF91CF910895CF93DF93D82F6B
:10040000C92F60E00E94E4016D2F7C2F0E94B30190
:10041000DF91CF91089581E008950E940B02089525
:10042000CF93C82F0E942A068C2F0E940D022FEF17
:1004300084E39CE0215080409040E1F700C0000040
:10044000CF91089581E00E9410020E945D1A0895E4
:1004500080E00E9410020E946E1A08950F931F936D
:10046000CF93DF938C0161E00E94E401EC01B801BD
:100470000E94AF018823B1F1B801CE010E94741728
:10048000882381F1B801CE010E94A813882351F17D
:10049000B801CE010E947D13882321F1F8018581E6
:1004A000882381F0CA35FCE7DF0739F178F4C130E1
:1004B000ECE7DE07F9F0C330FCE7DF07C9F0C11550
:1004C000DC4771F0C8010E94AA010DC0CB35ECE7F2
:1004D000DE07B1F0CC35DC47A9F70E94C80BF2CF9C
:1004E0000E94220280E0DF91CF911F910F91089529
:1004F0000E94DA0B0E942802F5CF0E94D20BE2CFB5
:100500000E94D60BDFCF0E947E190E94C702089579
:100510000E94CB020E94831908959C01892F99277C
:100520000097E9F09C0188E0A90174E05695479591
:100530007A95E1F74115510511F08C5F9A01A901F7
:1005400056954795569547954115510511F08E5F83
:100550009A0136952795232B09F08F5F089580E047
:10056000E3CF81E008950895CF93DF93D82F0E94C1
:10057000B102C82F882319F08D2F0E94B3028C2F4F
:10058000DF91CF91089508950E94B402089580E00C
:100590000E94C40208950E94BA170E94C4020895DE
:1005A000CF930E94BA17C82F80919C018C1779F0C5
:1005B000C0939C010E940D1A60939D0170939E014F
:1005C00080939F019093A0018C2F0E94C402CF9131
:1005D0000895ADE0B0E0EFEEF2E00C942C214887F6
:1005E00059876A877B878C879D8791110E94D30AE0
:1005F0001F8286E0FE013896DE01119601900D9271
:100600008A95E1F78D8181110DC029813A814B8155
:100610005C816D817E818F810E94190A2D96E2E0B6
:100620000C944821CE0101960E94EF018111EDCF7B
:10063000F5CFFC018481813021F4808191810E9479
:10064000C6070895662329F00E9416150E94D71543
:1006500008950E945F15FACFCF93C82F8823C1F069
:100660008CEF8C0F813AB0F48C2F0E94B51281115F
:100670000FC08C2F0E945D18882329F08C2F0E94B8
:1006800002190E946B0B8C2F0E94EB180E946B0BBF
:10069000CF91089580E28C0F883048F4C77081E0D4
:1006A00001C0880FCA95EAF70E94B40AEFCF8BE524
:1006B0008C0F833038F42C2F2452330BC9010E9445
:1006C000F017E6CFE8E5EC0FEB3150F4F0E0EE0F79
:1006D000FF1FE95EFE4F808191810E941618D8CFDE
:1006E00083E38C0F8331A0F661E08C2F0E942203FC
:1006F000CFCF882381F19CEF980F913A28F40E9484
:1007000002190E946B0B089590E2980F983050F4F4
:10071000877091E001C0990F8A95EAF7892F0E94AE
:10072000BA0AEFCF9BE5980F933028F480E090E071
:100730000E94F017089598E5980F9B3128F480E007
:1007400090E00E941618089593E3980F933118F4DF
:1007500060E00E94220308951F93CF93DF93182F28
:10076000EB010E942C03209739F4812F0E9479031A
:10077000DF91CF911F9108958FE99FE00197F1F7E5
:1007800000C000002197EFCF60E070E0893311F4E2
:1007900060E570E00E94AC030895882321F00E9478
:1007A000B40A0E946B0B0895882321F00E94BA0AB4
:1007B0000E946B0B0895A0E0B0E0E1EEF3E00C9432
:1007C00026216C01D62FC72FFC01158106810295C9
:1007D0000F700E94A90AE82E8823F9F0E12E112358
:1007E000E1F08C2F807F803461F080E28D0F8830C3
:1007F000F0F08C2F807E803221F4D230C0F00023C4
:10080000B1F080918D0282FF12C082E00E949B0BAA
:100810000E94A90A91E0E82EE926EC2FE295EF70FC
:10082000C03CB0F5F0E0EF52FE4D0C941621E12CE7
:10083000F4CF0C2F0F70C03110F00295007F112300
:1008400099F0002359F080E28D0F883010F0D1111B
:1008500007C0802F0E94B40A0E946B0B8D2F51C0DD
:10086000802F0E94C50AF8CF8D2F0E9479030023A4
:1008700079F080E28D0F883010F0D11104C0802F04
:100880000E94BA0A03C0802F0E94CB0A0E946B0B01
:10089000EE2089F00E94A50A80FD0DC0F6011582A8
:1008A0000E949F0A0E94C806C6010E94F1050E948C
:1008B0009F0A0E94D806CDB7DEB7E8E00C9442212B
:1008C000FC2FFF70FF2EC07FC03219F0F29480EF32
:1008D000F822DD2341F0D130D1F1112309F444C0D5
:1008E0000023F1F0BBCF80918D0282FD15C0112352
:1008F00059F0FF2029F08F2D0E94B40A0E946B0B43
:1009000080E00E942C03C4CF80E00E947903FF2086
:1009100009F4BECF8F2DB4CF112369F0011104C0AB
:100920008F2D0E94CD03B4CF013009F0B1CF8F2DB0
:100930000E94EB0AADCF0111ABCF8F2D0E94D403E3
:100940008F2D0E94F70A8F2D0E94DA0AA1CF112362
:1009500021F0063008F09CCFE3CF053008F098CFA7
:100960008F2D0E94D40394CF0023D1F3D93349F4BF
:100970002FEF87EE93E0215080409040E1F700C0D8
:1009800000008D2F0E94790383CF8C2F869586954A
:100990008370882369F0813009F07ACF8D2F9C2FE6
:1009A0009370111102C080E090E00E94161870CF81
:1009B0008D2F9C2F9370111102C080E090E00E9457
:1009C000F01766CF612F8D2F0E94220361CF8C2FED
:1009D0008370811139C0111129C04D2F4295469560
:1009E0004770440F440F2D2F2F7030E0042E02C0AB
:1009F000220F331F0A94E2F780E090E0D4FF09C091
:100A00008FE090E002C0880F991F4A95E2F7809529
:100A10009095C695C695C370822B932BC23071F00A
:100A2000C33079F0C13039F00E9485060E94BA17B0
:100A30000E94C4022DCF0E947C06F8CF0E948E0631
:100A4000F5CF0E947906F2CF112361F1C0FFEECFFE
:100A50004D2F429546954770440F440F2D2F2F7010
:100A600030E0042E02C0220F331F0A94E2F780E028
:100A700090E0D4FF09C08FE090E002C0880F991F7A
:100A80004A95E2F780959095C695C695C370822BDE
:100A9000932BC23069F0C33071F0C13031F00E9445
:100AA0000307C4CF823010F2D3CF0E94FA06BECF24
:100AB0000E940C07BBCF0E949A06B8CFCF701123BB
:100AC00039F08C2F0E94C8068D2F0E94CD03AECF27
:100AD0008D2F0E94D4038C2F0E94D806A7CFD23F1F
:100AE00031F170F4D03FB9F0D13FB1F1112309F4E5
:100AF0004EC0002309F448C08D2F0E942C0396CFCE
:100B0000D33FE1F0D43F21F11111F3CF01114DC0DA
:100B10008C2F8F71E1CF112341F0053008F086CF83
:100B20008C2F8F710E94EA0681CF0530F7CF8C2F72
:100B30008F711111D1CF0E94C80678CF112329F0EF
:100B40008C2F8F710E94BC0671CF0E94A1066ECFC0
:100B500080918D0282FD06C08C2F8F71112309F4C4
:100B6000BBCFE9CF112331F063E08C2F8F710E944E
:100B70007D0B5CCF81E00E949B0B023008F456CFC6
:100B800082E00E949B0B52CF8C2F8F71D4CF002319
:100B900009F4BECFD93349F4EFEFF7EE23E0E1508B
:100BA000F0402040E1F700C000008D2F0E94790343
:100BB0003DCF0F931F93CF93DF93EC016881798131
:100BC0008D810E94D3078C010E9415070E94780630
:100BD000B801CE010E94DB03DF91CF911F910F91ED
:100BE0000895CF93DF93EC018C81882399F0CE0197
:100BF0000E942E02811111C00E94A90A882351F07F
:100C00008D81882339F080918D0282FF03C082E0BC
:100C10000E949B0BDF91CF910895CE010E94D905D0
:100C2000CE010E94FD01F6CF80E090E00E94F01717
:100C300080E090E00E9416180E94D30A0E946B0B7D
:100C40000E94F4150E94D71508950E9419190E9458
:100C5000140608950E94C20A0E9425060895282FAE
:100C600092959F70963091F060F4925F9F709230F1
:100C700030F481E0203F79F030F4283E30F080E01D
:100C800008959A5FF3CF243FD1F7089581E0283E7D
:100C9000E0F3213FF9CF0895FC018481882339F0E6
:100CA000808191810E94C6070E942F06089580E0EE
:100CB0000895A6E0B0E0EFE5F6E00C942C2126962E
:100CC000E2E00C944821A7E0B0E0E9E6F6E00C94FD
:100CD0002C212796E2E00C94482108950E946D068D
:100CE00008950E946E069093AD018093AC01089523
:100CF00008950E94710608952091AC013091AD01D4
:100D0000822B932B0E94710608952091AC013091A3
:100D1000AD01822393230E94710608952091AC01B6
:100D20003091AD01822793270E94710608950E9499
:100D3000740108950E9497069093AB018093AA01D5
:100D4000089580E090E00E949A0608959C01892B06
:100D500029F481E0662379F080E00DC081E090E025
:100D6000AC0102C0440F551F6A95E2F7BA01622335
:100D70007323672B89F3089521E030E0A90102C0B5
:100D8000440F551F8A95E2F7CA010E949A060895FA
:100D900021E030E002C0220F331F8A95E2F78091F4
:100DA000AA019091AB01822B932B0E949A06089581
:100DB00021E030E002C0220F331F8A95E2F7209530
:100DC00030958091AA019091AB01822393230E94D8
:100DD0009A06089521E030E002C0220F331F8A9561
:100DE000E2F78091AA019091AB01822793270E949C
:100DF0009A0608952091AA013091AB01822B932B82
:100E00000E949A0608952091AA013091AB01822395
:100E100093230E949A0608952091AA013091AB0174
:100E2000822793270E949A06089508959B01677070
:100E300091E001C0990F6A95EAF763E0369527952E
:100E40006A95E1F7220F331F220F331FFA01E20FD9
:100E5000F31F40E050E0682F70E08191DF011197AF
:100E60009B01042E02C0369527950A94E2F7217063
:100E700021952827292328272C934F5F5F4F443043
:100E8000510559F708959C01982F977083E0369586
:100E900027958A95E1F7220F331F220F331FFB019D
:100EA000E20FF31F40E050E080E0219130E0092E96
:100EB00002C0369527950A94E2F721703327042E55
:100EC00001C0220F0A94EAF7822B4F5F5F4F443034
:100ED000510559F70895482F862F933078F4433001
:100EE00068F4292F30E0B901660F771F620F731F76
:100EF000640F711D42EA51E00E9416070895482FC1
:100F0000933080F4833070F4292F30E0C901880FCA
:100F1000991F820F931F62EA71E0840F911D0E9456
:100F20004307089580E00895A0E0B0E0EAE9F7E023
:100F30000C9425218C01E090AA01F090AB018091E6
:100F4000AC019091AD01E82AF92ACFE0D0E0CC24A1
:100F5000C394D12CC6010C2E02C0880F991F0A948D
:100F6000E2F78E219F21892B49F4219798F7B12C24
:100F70008B2DCDB7DEB7E9E00C944121BC2EB80132
:100F80008C2F0E94B00E019781F3F2CFCF93DF93A5
:100F9000D82FC92F0E9494076D2F7C2F0E94B00E6E
:100FA000DF91CF9108951F93CF93DF93162FD72F03
:100FB0009091A101992341F0862F972F0E94C60797
:100FC000DF91CF911F910895882381F0862F972F6D
:100FD0000E949407C82F682F812F9D2F0E946B07B6
:100FE000612F7D2F8C2F0E94B00EEACF862F972F76
:100FF0000E947F07C82FF4CF0F931F93CF93E091E8
:10100000AE01C7E08091AF018E1304C0CF911F9154
:101010000F9108950E2F10E0CE9FF0011124E0559E
:10102000FE4F2081318142815381648175818681A7
:101030000E946306F8013196E770E4CF2091E80141
:101040003091E9014091EA015091EB016091EC018E
:101050007091ED018091EE010E94630608958091E8
:10106000EE01803178F48091ED01882359F0E09110
:10107000AE012091AF013091E9014091E80157E0C4
:101080002E1301C008956E2F70E05E9FF0011124B1
:10109000DF01A055BE4F14968C911497882361F1FF
:1010A00011968C911197831327C08C91841324C0BF
:1010B00015968C91159781111FC012968D919C9158
:1010C000A091EA01B091EB018A1B9B0B883C910532
:1010D00098F48091EE018F7080618093EE01EA5464
:1010E000FE4F80818F708061808388EE91E00E9446
:1010F000F1050E94FC070895FB013196E770C0CF0F
:10110000E091AE019091AF0127E0E91302C080E0C9
:101110000895AE2FB0E02E9FF0011124E055FE4F50
:101120003181361306C03081381303C03581341342
:1011300004C0FD013196E770E8CF81E008958F92F9
:101140009F92AF92BF92DF92EF92FF920F931F9305
:10115000CF93DF93CDB7DEB72D970FB6F894DEBFF0
:101160000FBECDBF8C0186E0F801DE01189601901C
:101170000D928A95E1F7F801E080F580A280B380B6
:10118000848198EE892E91E0992E9091EC01911135
:101190001BC0882309F4FCC0FF2009F43DC1C8012D
:1011A0000E944C06882309F437C187E0F801D40176
:1011B00001900D928A95E1F7C4010E9419030E94E3
:1011C0002F080E941E08E4C0D090ED012091EA0192
:1011D0003091EB01A501421B530BDD2009F4DBC06C
:1011E000483C510508F0A6C0882309F4D1C090916D
:1011F000E90191808091EE01803108F06BC0991275
:1012000028C09091E8019E1124C0F1105DC08F703C
:1012100080618093EE010E941E0888EE91E00E949A
:10122000F1058091EE01F8018683F12C8F2D2D962A
:101230000FB6F894DEBF0FBECDBFDF91CF911F91E7
:101240000F91FF90EF90DF90BF90AF909F908F90A5
:101250000895F11039C040E0692D8E2D0E9480085C
:1012600040E0692D8E2D0E948008F82E8111DDCF7F
:10127000888599850E94C607292F22952F70903462
:1012800050F49F70223080F0992399F0F8019681F4
:10129000903178F4CBCF2A5F2F70223078F0C801DC
:1012A0000E94F105FD2CC2CF992319F0882309F47F
:1012B000BDCF805E883008F4B9CFF1CF803F08F40D
:1012C000B5CF815F8230F7CF8091EE01816080934E
:1012D000EE01ABCF991207C09091E8019E1103C0B7
:1012E000FF2009F479C0C8010E944C06882309F444
:1012F00093C0FF2009F490C08091EE01803288F005
:101300002091E8013091E9013A832983BC82AB82C4
:101310009091EC019D831E828F83CE0101960E94E5
:10132000F10587E0F801A8EEB1E001900D928A95F1
:10133000E1F745CF9091EE019031A0F448855985B1
:101340006A857B858C859D850E94590688EE91E093
:101350000E94F10587E0F40111928A95E9F70E9455
:101360001E0863CF8823A1F02091E9018181281311
:10137000BACF8091E8018E11B6CFF110B4CF968329
:10138000C8010E94F10587E0F40111928A95E9F7FE
:10139000FF24F3944BCF483C510508F041C088230B
:1013A000B9F3FF20C9F19091E901818198132AC016
:1013B0008091E8018E1126C08091EE0180FD19C058
:1013C0008031B8F08683807F803F39F08681982F06
:1013D000907F905F8F70892B8683C8010E94F105F2
:1013E00087E0F801A8EEB1E001900D928A95E1F74F
:1013F000E8CE87E0F801A8EEB1E001900D928A9561
:10140000E1F7C6CFC8010E944C0681118ACF8091B6
:10141000EE0181608093EE01C8010E94F105B8CF12
:10142000488559856A857B858C859D850E945906EE
:1014300091CFAEE0B0E0EFE1FAE00C942B212887E9
:1014400039874A875B876C877D878E87CE010896B0
:101450000E949F088823B1F06C85662341F028859F
:1014600039854A855B857D858E850E94630617E0F8
:101470008091AE019091AF0189133EC02E96E3E0BA
:101480000C94472187E0FE013896DE011196019009
:101490000D928A95E1F72091AF014091AE018C85C4
:1014A000882329F330E0C90101968770992750E01D
:1014B0008417950799F097E0929FD001939FB00D04
:1014C0001124A055BE4FFE01319601900D929A95C0
:1014D000E1F78093AF010E94FC07C9CF0E942A0662
:1014E0001092AF011092AE0187E0E8EEF1E0DF016B
:1014F0001D928A95E9F7BBCF189FC0011124805532
:101500009E4F0E949F08882309F4B8CFE091AE0156
:101510001E9FF0011124E055FE4F20813181428150
:1015200053816481758186810E9463068091AE013A
:1015300090E00196877099278093AE0199CF8091B2
:101540001702869586958695089580911702877073
:10155000089590911702977081E0911101C080E089
:10156000089580914302089590914302982B90939F
:1015700043020895982F9095809143028923809388
:101580004302089510924302089590914202982BCD
:10159000909342020895982F90958091420289235A
:1015A00080934202089510924202089508950E9485
:1015B000D60A089590911802292F2823222331F06A
:1015C00080958923809318020E94D70A0895089570
:1015D0000E94E70A089590911902292F28232817BD
:1015E00029F0982B909319020E94E80A089590918F
:1015F0001902292F2823222331F0809589238093F3
:1016000019020E94E80A089580911902882329F09E
:101610001092190280E00E94E80A0895CF93DF93A8
:10162000C091430280914202C82BD0911902DD2360
:1016300031F00E943C1881110E94040BCD2B8C2F9D
:10164000DF91CF910895CF93DF93C0910201D091A4
:1016500003010E940E0B8883C0910201D091030107
:1016600048E050E06FE072E0CE010E946721892BD4
:1016700059F088E0FE01AFE0B2E001900D928A954A
:10168000E1F7CE010E94C717DF91CF910895CF9364
:10169000DF93C0910001D09101010E940E0B89835C
:1016A000C0910001D091010140E250E06FEE71E085
:1016B000CE010E946721892B59F080E2FE01AFEE36
:1016C000B1E001900D928A95E1F7CE010E94D21708
:1016D000DF91CF91089580911601882339F0809190
:1016E0008C0287FF03C00E94470B08950E94230BC2
:1016F000089508950E94790B089590918D0292FFAC
:1017000011C098E0899F90011124622B6093170209
:101710000E94C806809117028695869586950E943C
:101720007A0B08950E94C80608951092170280E06F
:101730000E947A0B089590911702809589238093D7
:101740001702282F277021110DC0891759F0909189
:101750008D0292FF07C08695869586950E94D806D1
:101760000E94950B089590918D0292FB222720F9FB
:10177000281769F080FB92F990938D0280918C027A
:1017800090918D020E94FB0B82E00E949B0B0895BA
:1017900080918D0282FB882780F991E089270E9441
:1017A000B30B089581E00E94B30B089580E00E947E
:1017B000B30B08956FEF7FEF80E090E00E94B921B6
:1017C000089580E090E00E9485219C0181E0253E03
:1017D0003E4F09F080E0089582E090E00E947D2174
:1017E000089583E090E00E947D21089584E090E0D8
:1017F0000E9485210895BC0184E090E00E94B921F7
:101800000895AB01BC018FE090E00E94AD210895E6
:10181000AB01BC0183E190E00E94AD21089560E03E
:1018200070E0CB010E94080C089560E070E0CB01ED
:101830000E94010C0E940F0C0895A8E0B0E0E3E2C2
:10184000FCE00C942C2165EE7EEF80E090E00E949D
:10185000B92160E082E090E00E949B2181E090E06D
:101860009093AD018093AC0161E083E090E00E9431
:101870009B2160E074E184E090E00E94B92160E087
:1018800086E090E00E949B2160E087E090E00E946B
:101890009B2140E050E0BA0188E090E00E94AD2139
:1018A00060E083E290E00E949B2160E08CE090E0A9
:1018B0000E949B2160E08DE090E00E949B211982B4
:1018C0001A821B821C821D821E821F82188648E09B
:1018D00050E067E170E0CE0101960E948B2140E06C
:1018E00050E0BA018FE190E00E94AD210E94150CFA
:1018F0002896E2E00C9448210E941D0C0895682F60
:101900008EE090E00E949B210895A6E0B0E0EBE815
:10191000FCE00C942A210E94011A8C01809144025F
:10192000909145028017910779F019821A820E94DE
:10193000011ABC0149815A8180E090E00E94E902CD
:1019400010934502009344022696E4E00C9446214D
:101950000E940D1A609351027093520280935302B9
:101960009093540260934D0270934E0280934F0205
:101970009093500208950E940D1A60935102709343
:1019800052028093530290935402609349027093E1
:101990004A0280934B0290934C02089508950E944E
:1019A0007201089508950E94D20C089588EA9FE07C
:1019B0000E94F7100E94CE0C0E94CF0C089581E087
:1019C00008950E94DF0C08950E94DF0C0895089589
:1019D00008950E94E70C0E94E80C08950E94E10B14
:1019E000811102C00E947C0C0E94EC0B8093550276
:1019F0000E94F60B90938D0280938C020E94F10B53
:101A000090E00E9479068091AA019091AB010E941A
:101A1000970608950E94F8190E94FF100E944B102B
:101A20000E94EE0C0E94C3020E94D30C0895A6E00F
:101A3000B0E0EDE1FDE00C9424210E94E10C811165
:101A40000FC00E94850C0E94691181110E94BB0C7D
:101A50000E9415160E94D0022696EAE00C944021BE
:101A60000E9461101091460280E00E94B20F811323
:101A70000EC01091470281E00E94B20F181307C0F8
:101A80001091480282E00E94B20F1817D1F28091A3
:101A9000550281FD0E94B80F0E94E40CC82E86E416
:101AA000A82E82E0B82E00E0802F0E94B20F182FDF
:101AB000F50191915F01891741F1D82ED926F12CBA
:101AC000EE24E3948D2D8E218823B9F0CC20A9F04B
:101AD000F9820A830E94011A9C838B8381E08D83A3
:101AE00091E0812F8E21811101C090E049815A81BE
:101AF0006B817C818D810E94E902F394EE0CF3E00E
:101B0000FF12E0CFF501319710830F5F033061F6CC
:101B10000E94A80C98CF1F93CF93DF930E94B50E1D
:101B2000EC01811522E5920708F053C0811540E5CC
:101B3000940708F0DDC0803E9105F8F48D3C9105D6
:101B400008F0AEC0883A910580F4853A910508F016
:101B500099C08130910521F00497813A910550F4A4
:101B6000CE01DF91CF911F910895885A91094B972B
:101B700008F48BC0C0E0D0E0F3CF811550E49507A6
:101B8000F8F4C11580E2D80708F0CBC0C83ED105F3
:101B900038F3CE019A9581159F4160F78D2F0E94F1
:101BA000590F182FCE0199270E94B50E212F30E032
:101BB000322F2227E901CC27DF71C82BD92BD0CFB8
:101BC00099270E94B50ECC27DF70C82BD92BD06A7D
:101BD000C7CF803842E59407C8F5803652E59507AF
:101BE00008F067C0C03482E5D807B0F08C2F869526
:101BF0008695877020E2829FC0011124C37021E086
:101C000030E0A90102C0440F551FCA95E2F7EA016E
:101C1000C82BD92BDC68A4CFC03252E5D50708F019
:101C200041C08C2F8695869520E2829FC0011124A9
:101C3000C37021E030E0A90102C0440F551FCA95CE
:101C4000E2F7EA01C82BD92BDD688ACF803C52E548
:101C5000950760F48F71C03AD24508F03FC090E01C
:101C6000982F8827EC01C46FD06A7ACF805C9245A8
:101C7000809708F07FCFDC2FCC27CC27DF71C06F97
:101C8000D06A6ECFA497D0646BCFC85AD0E0CC0F87
:101C9000DD1FC35BDE4F0990D881C02DD46460CFB7
:101CA000D0655ECFCF71D0E0DC2FCC27C16FD06A7A
:101CB00057CF86958695877020E2829FC0011124B8
:101CC000C37021E030E0A90102C0440F551FCA953E
:101CD000E2F7EA01C82BD92BDA6842CF0E94590FEC
:101CE000C82FD0E0DC2FCC27CC27DF71D06238CFD3
:101CF0008F710E94590F65E0D695C7956A95E1F7F7
:101D0000CF70D0E0DC2FCC27282F30E084FF05C037
:101D100054E0220F331F5A95E1F7C22BD32BD06921
:101D20001FCF8D2F8F710E94590F182FCE01992729
:101D30000E94B50E212F30E0322F222722273F713B
:101D4000282B392BE901D2CF462F672F733028F487
:101D5000433018F40E94A201089580E090E00895B5
:101D60000E94A40E0E948B0D0895803E9105D1F132
:101D7000C8F48133910509F47FC048F48932910594
:101D800009F46FC08A32910509F47DC00895893342
:101D90009105E1F082389105C9F08533910509F488
:101DA0005BC00895843E9105D1F148F4823E9105CF
:101DB00031F1833E910541F181EE90E00895863E38
:101DC0009105C1F1873E9105E1F1089520918C02C2
:101DD0002370211165C020918D0223FF14C089E278
:101DE00090E0089520918C0220FD43C030918D0237
:101DF00030FF09C024FF4EC080E090E0089520919C
:101E00008C0222FDF7CF089520918C0222FD45C05F
:101E100030918D0230FD44C024FFF5CFEDCF2091ED
:101E20008D0221FFF0CF80918C0284FDE5CF87EEFB
:101E300090E0089520918C0223FFE5CF24FDDCCFB4
:101E4000F6CF20918C0223FD2EC030918D0231FF00
:101E5000E3CF84EE90E0089520918C0225FFD3CF4C
:101E6000BECF20918C0225FD21C020918D0223FF41
:101E7000CACF89E390E0089520918C0226FFC3CF5A
:101E80008AE290E0089520918C0226FFBCCF81E386
:101E900090E0089583EE90E0089582EE90E008953A
:101EA00080EE90E0089586EE90E0089585E390E05E
:101EB000AACF90918C0292FF10C041E0282F24718C
:101EC000243009F040E031E0282F2871283009F053
:101ED00030E0431711F02CE0822793FF10C041E05F
:101EE000282F2471243109F040E031E0282F287197
:101EF000283109F030E0431711F02CE082273091AF
:101F00008D0230FF10C051E0282F2171213009F0DF
:101F100050E041E0282F2871283009F040E05417A4
:101F200011F029E0822731FF10C041E0282F2171F4
:101F3000213109F040E031E0282F2871283109F0E3
:101F400030E0431711F029E0822794FD877E089541
:101F500080E0089508950E94AA0F089508950E94B0
:101F6000AE0F0895E82FF0E0EF56FD4F8081089501
:101F7000089580EA8A95F1F7089500C008950E94B7
:101F8000B90F0895F894E82FE295EF70F0E041A1C1
:101F90008F7021E030E0B90102C0660F771F8A958B
:101FA000E2F7CB01962F9095942391A392A1892BD0
:101FB00082A37894089586EC0E94C20F84E30E9465
:101FC000C20F85E30E94C20F84E90E94C20F86E619
:101FD0000E94C20F87E90E94C20F0895A0E0B0E0FE
:101FE000E4EFFFE00C942621EC01D62E062F10E042
:101FF000C8018A579E4F7C01FC0180818F3F09F404
:1020000045C0F894E82FE295EF70F0E091A18F7051
:1020100021E030E001C0220F8A95EAF7892F822B58
:1020200081A382A12095282322A378940E94BD0F2A
:10203000E3E8F1E091E0C12C81918F3F81F0A82F7E
:10204000A295AF70A05EB0E02C9130E08F7002C01E
:10205000359527958A95E2F72170892F211180E027
:10206000C82A990F81E0E638F80731F7F701808137
:102070008F3F11F00E94C20F61E0C11001C060E00B
:102080008D2D0E94BF0FC00FD11FC882CDB7DEB704
:10209000E8E00C9442210E94DB0F83E0E1E9F2E0EA
:1020A000DF01982F1D929A95E9F7EEE8F2E0DF0143
:1020B0001D928A95E9F783E00E949F100E94AB0F62
:1020C0000895A3E0B0E0E7E6F0E10C942B211A823A
:1020D00019821B8260E0CE0101960E94EE0F61E042
:1020E000CE0101960E94EE0F62E0CE0101960E94A1
:1020F000EE0F43E050E0BE016F5F7F4F8EE892E04D
:102100000E94672121E0892B81F420E043E061E90E
:1021100072E08EE892E00E94A010182F0E94AF0F8C
:10212000812F2396E3E00C94472189819A81AB812A
:1021300080938E0290938F02A0939002E7CF089530
:10214000A0E0B0E0E6EAF0E10C942621D82EE92EDA
:10215000F62ED72F042FC22F222379F081E080930F
:1021600058020E94011A909357028093560280E011
:10217000CDB7DEB7E8E00C944221C0905802CC20E5
:10218000B1F380915602909157020E942A1A059746
:1021900070F310E0A8016D2D7E2D8F2D9D2F0E94D4
:1021A0006721892B41F0A8016D2D7E2D8F2D9D2F4C
:1021B0000E947421CC2D109258028C2FD9CF0E94EE
:1021C000170D08950E949A190E94C21B0E94D60CF6
:1021D0000E94DC1B0E940A0D0E94E91B0E94EE1B5C
:1021E0000E94DF100E94081C0E94E90CF7CF909318
:1021F0009B0180939A0108950E94DF0C0895EAE5FF
:10220000F2E088E0DF011D928A95E9F70E94EB1168
:102210000895FC01228130E02F5F3F4F2370332768
:10222000438150E081E02417350709F080E00895EC
:102230000F931F93CF93DF93EC01162F042F0E946F
:102240000911811113C08A81FE01E80FF11D00FB05
:1022500017F914838F5F83708A8388818F5F8883E7
:1022600081E0DF91CF911F910F91089580E0F9CF28
:10227000CF93DF93FC01EA01A38182818A17B9F031
:10228000AE0FBF2FB11D14968C9187FB992790F943
:102290008F77DB018C93988383818F5F8370838337
:1022A00081818F5F818381E0DF91CF91089580E00C
:1022B000FBCF462F682F8AE592E00E9418110895FF
:1022C000AB01BC018AE592E00E943811089581E0DB
:1022D0000895A2E0B0E0EFE6F1E10C942A218091AC
:1022E0005902882351F01092590280915C02809328
:1022F0005D0280915A0280935B020E9429120E9423
:10230000FC10182F882389F010E005C069818A81AC
:102310000E944901102FBE016F5F7F4FCE010296D0
:102320000E946011082F8111F1CF812F2296E4E0E5
:102330000C9446218FE891E00197F1F700C000006E
:1023400008952AB181E090E0AC0102C0440F551F0E
:102350006A95E2F7842F809582238AB98BB1842B0A
:102360008BB9089589B190E002C0959587956A95DB
:10237000E2F7817008950895CF93DF93C0E08091D4
:102380006202C81760F00E949A11C0E08091620258
:10239000C81778F00E94BB11DF91CF91089560E0DB
:1023A0008C2F0E94A11161E08C2F0E94A111CF5FA0
:1023B000E6CF60E08C2F0E94B211D82F61E08C2F05
:1023C0000E94B211EC2FF0E0EC59FD4F880F8D2BDD
:1023D0008083CF5FDBCF81E0809362020E94BC11DB
:1023E00008951F93CF93DF93182F440F642BC82FAA
:1023F000D0E0DE01AC59BD4FEC918E2F8370681791
:1024000021F1EE0FEE0FE62BEC93EF70F0E0E757C3
:10241000FE4FCD59DD4F90818881980F988394307D
:1024200024F060E0812F0E94591188818D3F24F4AF
:1024300061E0812F0E9459118881082E000C990BB0
:1024400064E070E00E9402218883DF91CF911F91A8
:102450000895CF93DF93C0E080916202C81718F00F
:10246000DF91CF91089561E08C2F0E94B211D82F97
:1024700060E08C2F0E94B211682F4D2F8C2F0E948C
:10248000F111CF5FE9CFEBEFE80FEF3308F066C053
:10249000F0E0E352FE4D0C9416210E947C0C81E08A
:1024A000089580915502807F8093550281E080934A
:1024B0006802F5CF0E942202F2CF90915502892F37
:1024C0008E7F90FF81608093550280FDE8CF817FF1
:1024D00080935502E4CF90915502892F8D7F91FF13
:1024E00082608093550281FFDACF8091550281602E
:1024F000EFCF90915502892F8B7F92FF846080935C
:10250000550282FDF2CFCBCF90915502892F877F64
:1025100093FF88608093550283FDE7CFC0CF0E9470
:102520002A0690918C02892F97FB87F98058809317
:102530008C02B5CF81E090E00E9479060E942A06C5
:10254000AECF895321E030E0A90102C0440F551FEE
:102550008A95E2F7CA01F0CF8D51F4CF80E008955B
:1025600080E008950E94B0120895CF93C82F809103
:1025700068028130A1F08230A9F18111BAC00E94B5
:10258000B10A823209F0B7C08C2F0E94B0128111BB
:1025900011C08C2F0E9443128170CF9108950E9428
:1025A000B10A823289F38C2F0E94B212882329F05B
:1025B00081E0F2CF81E090E0EFCFC43161F030F400
:1025C000CB30B1F3C03151F080E0E6CFC93219F021
:1025D000C83371F3F9CF10926802F6CF82E080938E
:1025E0006802E6CFCF3409F471C068F4C83248F409
:1025F000CE3150F5C73009F44BC0C431D1F081E081
:10260000CCCFC932FBCFC13509F455C091E0C235FA
:1026100009F45DC0C03599F7E0916502F09166025A
:10262000309769F380818A50990B97FF60C01082C0
:10263000E6CF80916702882311F31092670210920F
:10264000660210926502DBCFCD51C0936702C430A1
:10265000C9F078F48AE091E0C23031F089E091E08D
:10266000C33011F08BE091E0909366028093650295
:10267000C6CFC53051F084E091E0C630A9F3109286
:102680006702BDCF88E091E0EFCF85E091E0ECCF2D
:1026900081E080930B0184E180930A018AE08093BA
:1026A00009018EE18093080188E08093050188E2AA
:1026B00080930401A4CFE0916502F0916602309707
:1026C00009F49DCF80818150990BAFCF9AE0E091C2
:1026D0006502F0916602309709F491CF8081890FED
:1026E0009927991F8F3F910511F00CF08FEF808390
:1026F00086CF1092680280E050CFCF93DF93EB013A
:1027000086319C4719F50E94B10A9D819923A1F059
:102710008A7A91E0811101C090E090936902882348
:1027200049F085E30E94EB180E946B0B80E0DF917B
:10273000CF91089589E2F6CF80916902882321F034
:1027400085E30E940219F0CF89E2FBCF81E0EFCF51
:10275000CF93DF93EC01FB018581882309F4D2C07C
:102760009E0130572332310508F0B2C00E94F60BAB
:1027700090938D0280938C02FE01E150F047E2328B
:10278000F10520F4E45EFD4D0C94162180918C023D
:10279000816080938C0293C080918D0288608093C9
:1027A0008D028DC080918C028260F3CF80918C026B
:1027B0008460EFCF80918C028860EBCF80918D0296
:1027C0008160EDCF80918D028260E9CF80918C0293
:1027D0008061DFCF80918C028062DBCF80918C02A0
:1027E0008064D7CF0E942A0680918C028068D1CF66
:1027F00080918C028C60CDCF80918D028360CFCF91
:1028000080918C028E7FC5CF80918D02877FC7CF4C
:1028100080918C028D7FBDCF80918C028B7FB9CF50
:1028200080918C02877FB5CF80918D028E7FB7CF4C
:1028300080918D028D7FB3CF80918C028F7EA9CF46
:1028400080918C028F7DA5CF80918C028F7BA1CF50
:102850000E942A0680918C028F779BCF80918C02F8
:10286000837F97CF80918D028C7F99CF80918C024E
:1028700082FB992790F921E0922790FB82F990FB47
:1028800083F987CF80918D02982F909591708E7FDC
:10289000892B90FB81F983CF90918C02892F8F7BBC
:1028A00096FF806476CF0E942A0690918C02892F31
:1028B00097FB87F980586DCF81E00E947F0C809153
:1028C0008C0290918D020E94FB0B0E942A0680E0F0
:1028D000DF91CF91089580E0F0CF90918C02892F05
:1028E0008F7E94FF806155CF90918C02892F8E7FCF
:1028F00090FF81604ECF90918D02892F877F93FF4B
:1029000088604DCF81E0E4CF282F35EB2303C00151
:10291000112497FF04C080589109892F0895805889
:102920009F4FFBCF8091700280FF0DC06091090125
:1029300070E0660F771F60387105C0F5611571058D
:10294000B9F1862F089581FF07C06091090184E0E5
:10295000689FB0011124EFCF82FF04C0609109018C
:1029600088E0F6CF80916F028823E9F0909108010A
:102970006091090170E0891730F093E0660F771FCE
:102980009A95E1F7D8CF869F9001879F300D11244B
:1029900083E0220F331F8A95E1F7692F70E0C901A8
:1029A0000E940221C8CF68E070E0CBCF8FE7089586
:1029B00081E008958091700280FF0CC06091050154
:1029C00070E075956795759567956115710561F16D
:1029D000862F089581FF06C06091050170E075950E
:1029E0006795F3CF6091050170E082FD15C02091DD
:1029F0006E022223B1F0909104016091050170E014
:102A0000291750F4269FA001279F500D1124692FEC
:102A100070E0CA010E94022160387105B0F28FE7B0
:102A2000089561E070E0D4CF81E00895E3E3E80F1A
:102A3000E331E0F5F0E0E25CFD4D0C9416210E94DC
:102A4000921481958093740208950E949214FACF93
:102A50000E94921481958093730208950E949214AB
:102A6000FACF0E94DA148093750208950E94DA1456
:102A70008195F9CF0E94DA148195809376020895AA
:102A80000E94DA14FACF815D990B21E030E001C099
:102A9000220F8A95EAF780917202822B809372024C
:102AA00008958091700281608093700208958091F2
:102AB00070028260F9CF809170028460F5CF4091FE
:102AC00073028D3C59F48091740287FF0DC01092FF
:102AD0007402442359F410926F0208C08E3C81F4B2
:102AE0008091740218169CF3442381F08091750242
:102AF00090917602892B811159C010926E0208952F
:102B00008F3C41F447FFF0CF109273028091740222
:102B10008823E0CF803D19F41416B4F3E5CF9091EB
:102B20007502893D29F41916FCF610927502DCCF66
:102B30008A3D19F497FFD8CFF8CF909176028B3D5C
:102B400029F497FFD1CF10927602CECF8C3D19F4A5
:102B50001916CCF3C9CF9FE2980F983090F4815D9D
:102B6000990B21E030E0B90102C0660F771F8A950A
:102B7000E2F7CB01809590917202892380937202D3
:102B8000B3CF8D3D31F4809170028E7F80937002BF
:102B9000ABCF8E3D21F4809170028D7FF7CF8F3DBA
:102BA00009F0A2CF809170028B7FF0CF08950E9430
:102BB000011A2091730230917402232B222321F0F9
:102BC00080936C0290936D02209175023091760291
:102BD000232B222321F080936A0290936B0281E7DA
:102BE00092E00E94E117089586E0E1E7F2E0DF015C
:102BF0001D928A95E9F710926F0210926E02109260
:102C000070020895FC01828181110DC083818111C0
:102C10000AC08481811107C081E09581911101C0B2
:102C200080E08170089581E0FCCFA6E0B0E0EBE1A8
:102C3000F6E10C94292186E0E1E7F2E09E012F5FA6
:102C40003F4FD90101900D928A95E1F710927302DE
:102C50001092740210927502109276028B819C8100
:102C6000892B8901882391F080916C0290916D02EB
:102C70000E942A1A9C0180916F028823C9F1409119
:102C80000A0150E04217530708F43FC08D819E812E
:102C9000892B882399F080916A0290916B020E949F
:102CA0002A1A9C0180916E02882309F467C0409122
:102CB000060150E04217530708F46EC0B80181E7DF
:102CC00092E00E943319811105C081E792E00E94D1
:102CD000021681110E94D71586E0F801A1E7B2E043
:102CE00001900D928A95E1F72696E5E00C94452136
:102CF00040910B019AE0499FA0011124421753070C
:102D000028F68F5F80936F0202C08F3FD1F7FB8060
:102D1000FF2059F00E94921491E01F140CF09FEFD5
:102D2000899F802D112480937302FC80FF2059F02D
:102D30000E94921491E01F140CF09FEF899F802D48
:102D400011248093740280917302882309F49ECF2A
:102D5000F0907402FF2009F499CF0E94841481112D
:102D600001C081E0809373028F2D0E948414882318
:102D700019F0809374028ACF81E0FBCF4091070164
:102D80009AE0499FA00111244217530708F096CFFB
:102D90008F5F80936E0202C08F3FD1F7FD80FF20CE
:102DA00059F00E94DA1491E01F140CF09FEF899FF4
:102DB000802D112480937502FE80FF2059F00E941F
:102DC000DA1491E01F140CF09FEF899F802D1124DD
:102DD0008093760280917502882309F46FCFF0907A
:102DE0007602FF2009F46ACF0E948414811101C089
:102DF00081E0809375028F2D0E948414882319F03E
:102E0000809376025BCF81E0FBCF0F931F93CF932C
:102E1000DF93C42FD22FFC0185818823C9F0409312
:102E200079020E94011A909378028093770280E2DF
:102E30008C0F883040F4C77081E001C0880FCA95BC
:102E4000EAF70E94CD03DF91CF911F910F91089572
:102E50001091790214133CC080917702909178020E
:102E60000E942A1A883C910598F5C0E2CD0F1D17E3
:102E700041F180E2810F883040F4177081E001C099
:102E8000880F1A95EAF70E94D403C83020F0802FEB
:102E90000E94C403D8CF91E08D2F877001C0990F95
:102EA0008A95EAF7892F0E94CD03802F0E94C403E0
:102EB000D77081E001C0880FDA95EAF70E94D40349
:102EC000C2CF802F0E94C403C83008F0BCCFF0CF1F
:102ED00080E28C0F883008F0B6CFC77081E001C067
:102EE000880FCA95EAF7EACF0F93FC01CB01E851AE
:102EF000FC47E730F10590F5EF5AFD4D0C94162193
:102F000006E221EE41EE6AE17CE70E94051780E0CF
:102F10000F91089507E225EE45EE6BE17CE7F5CFD2
:102F200006E221EE40EE68E17CE7EFCF07E225EE16
:102F300044EE69E17CE7E9CF06E221EE42EE6CE186
:102F40007CE7E3CF07E225EE46EE6DE17CE7DDCFDF
:102F500008E221E045EE6EE17CE7D7CFFB018581F9
:102F600081111092790281E0D3CF90937F028093F8
:102F70007E020895E0917E02F0917F02309729F061
:102F80000190F081E02D0995089580E00895E09189
:102F90007E02F0917F02309721F00280F381E02DD4
:102FA00009950895DC01E0917E02F0917F0230974F
:102FB00039F086E08C930480F581E02DCD010995F0
:102FC0000895DC01E0917E02F0917F02309739F0A4
:102FD00082E08C930680F781E02DCD01099508955C
:102FE000A3E0B0E0E6EFF7E10C942C219C01809186
:102FF0007C0290917D0282179307A1F030937D02AD
:1030000020937C02E0917E02F0917F02309751F094
:1030100083E089833B832A830084F185E02DCE0100
:10302000019609952396E2E00C944821A3E0B0E0D4
:10303000ECE1F8E10C942C219C0180917A029091B2
:103040007B0282179307A1F030937B0220937A02D0
:10305000E0917E02F0917F02309751F084E0898305
:103060003B832A830084F185E02DCE0101960995EA
:103070002396E2E00C944821209102013091030153
:103080002E5F3F4F809116018823A9F080918C021A
:1030900087FF11C020910001309101012E5F3F4F49
:1030A0009DE180E0F90140812F5F3F4F41118F5F2B
:1030B0009150C0F7089595E0F4CF882321F19091C5
:1030C0001601992311F190918C0297FF1EC0982F41
:1030D000969596959695803FB0F4E0910001F09119
:1030E0000101E90FF11D228130E0877041E050E0DD
:1030F000BA0102C0660F771F8A95E2F726233723AD
:1031000081E0232B91F480E0089520910201309119
:103110000301F9013296285F3F4F9191981721F0F2
:10312000E217F307D1F7EFCF81E008959C01FC018E
:1031300032968FEF90E04191461751F08F3F19F48E
:10314000411101C0892F9F5F9630A9F78F3F09F485
:103150000895280F311D87FD3A95F901628308957E
:103160009C01FC013296285F3F4F8191861303C07A
:10317000DF0111971C92E217F307B9F70895FC01DC
:10318000862F869586958695603F60F4E80FF11D41
:10319000677021E030E001C0220F6A95EAF7828172
:1031A000822B82830895FC01862F869586958695CD
:1031B000603F80F4E80FF11D677081E090E09C01B2
:1031C00002C0220F331F6A95E2F7B9016095828130
:1031D000682362830895682F80911601882359F02F
:1031E00080918C0287FF07C08091000190910101BE
:1031F0000E94BF18089580910201909103010E94DE
:1032000096180895682F80911601882359F08091AF
:103210008C0287FF07C080910001909101010E94FC
:10322000D318089580910201909103010E94B01873
:10323000089580911601882379F080918C0287FF90
:103240000BC0E0910001F091010132968EE1DF01A7
:103250001D928A95E9F70895E0910201F09103012A
:10326000329686E0F4CFDC01FB0111969C91119718
:103270008181981322C012968C911297882319F09D
:10328000928189131AC013968C911397882319F091
:103290009381891312C015968C911597882319F084
:1032A000958189130AC014969C91992321F081E09D
:1032B0002481291303C080E001C081E0817008955A
:1032C00008950E94601908958F5F809380020E9484
:1032D0006119089583E0809380020E946119089526
:1032E0000E946419089581E0809380020E94611910
:1032F00008950E9473190895089508950E947D19F4
:103300000895089508950E947C190895CF930E940E
:1033100081190E9461100E948219C0E08C2F0E94C6
:10332000B20F811105C0CF5FC330C1F7CF910895AF
:1033300081E0FCCF85B7806885BF85B7806885BF91
:1033400008951F921FB61F9211248F939F93AF93DE
:10335000BF9380918102811113C08091940290915A
:103360009502A0919602B09197024196A11DB11DC0
:103370008093940290939502A0939602B093970243
:10338000BF91AF919F918F911F901FBE1F90189575
:1033900080919C02843031F10E948302109281025C
:1033A00088E190E020E40FB6F894A895809360003F
:1033B0000FBE2093600083B7817F846083BF83B793
:1033C000816083BF7894889583B78E7F83BF0FB663
:1033D000F894A895809160008861809360001092B5
:1033E00060000FBE08950E942A060E948802089578
:1033F00082E084BD93E095BD9AEF97BD80936E0007
:1034000008952FB7F8948091940290919502A0911D
:103410009602B09197022FBF0895A4E0B0E0E3E1D7
:10342000FAE10C942C218FB7F894209194023091FA
:103430009502409196025091970229833A834B83DB
:103440005C838FBF69817A818B819C812496E2E0C5
:103450000C9448219C014FB7F8948091940290916C
:103460009502A0919602B09197024FBF821B930BD9
:10347000089578941F921FB61F9211248F939F93E3
:10348000AF93BF938091940290919502A091960280
:10349000B09197020196A11DB11D80939402909363
:1034A0009502A0939602B0939702BF91AF919F911E
:1034B0008F911F901FBE1F90189587E797E79093F5
:1034C00001088093000888E19AE00FB6F894A89567
:1034D000809360000FBE90936000FFCF88E19AE078
:1034E0000FB6F894A895809360000FBE909360008B
:1034F000FFCF80918A020895282FCB01BA01309125
:103500009C023430E1F42F702093E9002FEF3091CA
:10351000E80035FD07C035ED3A95F1F70000215080
:103520002111F5CF2091E80025FF09C040E050E0CF
:103530000E94801C8091E8008E778093E8000895B7
:10354000BC0143E050E082E00E947C1A0895BC0177
:1035500046E050E082E00E947C1A0895BC0140E2FF
:1035600050E082E00E947C1A0895CF93DF93D82F19
:10357000C92F48E050E0682F792F81E00E947C1A23
:1035800088E0ED2FFC2FA2E8B2E001900D928A9521
:10359000E1F7DF91CF91089580919B02811109C0DD
:1035A0000E94081E0E94651E8091E2008460809344
:1035B000E200089510929B0208950E9473190895E5
:1035C0006091980281E0611101C080E00E946A1957
:1035D000089590919C0281E0943009F080E0609120
:1035E00098020E947019089542E061EC81E00E9407
:1035F000841D42E261EC82E00E94841D90919C0255
:1036000081E0943009F080E0609198020E94641992
:10361000089580919E02893089F148F4823009F43E
:10362000A0C0833009F45AC0813041F008958A3037
:1036300009F487C08B3009F46CC0089580919D0215
:10364000813A09F04AC08091E800877F8093E800C2
:103650008091A1029091A202892B61F060E080E04C
:1036600090E070E00E94CF1C8091E8008B778093FF
:10367000E800089568E082E892E0F3CF80919D022F
:10368000813259F58091A1029091A202029728F50A
:103690008091E800877F8093E8008091E80082FFB6
:1036A00018C09091F3008091F200029731F480915C
:1036B000F100813011F0863021F48091F100809387
:1036C0008A028091E8008B778093E8000E94B81D01
:1036D00004C080919C028111E0CF089580919D02E9
:1036E000813AD9F78091A1029091A202892BA9F782
:1036F0008091E800877F8093E8008091E80080FF58
:10370000FCCF809116018093F1008091E8008E77C4
:10371000DBCF80919D02813201F78091A1029091CF
:10372000A202892BD1F68091E800877F8093E80080
:103730000E94B81D80919F02809316010E942A0664
:10374000089580919D02813241F68091E800877F43
:103750008093E8000E94B81D8091A00280938B02A4
:10376000089580919D02813A09F0B7CF8091E800D9
:10377000877F8093E8008091E80080FFFCCF8091F4
:103780008B02C1CF84B7877F84BF0FB6F894A8950A
:1037900080916000886180936000109260000FBE8D
:1037A00080E890E00FB6F8948093610090936100F8
:1037B0000FBE0E94791908950E94081E0E94651E7E
:1037C000E2EEF0E080818460808378940E94E820BB
:1037D00008958CE091E00E94B517089580919C02B5
:1037E000853031F480919C02853019F00E94F319E4
:1037F00008950E94C8190E948619882399F3809120
:103800009A02882379F30E946A1C0E942A06EACF52
:1038100008959A014091A3025091A4020E94111CA4
:103820000895AC01CB01D901252F33272330310571
:10383000E1F058F421303105C9F122303105D9F1D8
:1038400080E090E020E030E01EC02132310521F11F
:1038500022323105A9F7892BC1F16130710581F759
:1038600086EB90E029E531E00EC0CA01992741308E
:1038700069F08230910569F0E8E0F1E0892B01F709
:10388000849190E09F012D933C930895ECEEF0E03D
:10389000F7CFE0EDF0E0F4CF892B91F061307105C6
:1038A00079F689E090E027E331E0EDCF82E190E026
:1038B00027E431E0E8CF8BE390E02CE031E0E3CF88
:1038C00089E090E02EE131E0DECF84E490E02FE06B
:1038D00032E0D9CF80E189BD82E189BD09B400FE23
:1038E000FDCF8091D8008F7D8093D8008091E0003B
:1038F00082608093E0008091E00081FDFCCF08951C
:10390000AF92BF92CF92DF92FF920F931F93CF930C
:10391000DF936C01EB018A010E94D71DF82E811103
:1039200023C00115110539F0F80180819181C81B70
:10393000D90BC80ED91EA12CB12C2097A9F08091CB
:10394000E80085FD22C08091E8008E778093E80032
:1039500001151105A1F0F801808191818A0D9B1D4F
:103960009183808385E0F82E8F2DDF91CF911F9179
:103970000F91FF90DF90CF90BF90AF9008950E947D
:10398000D71D8823E1F2F82EEFCFF60181916F0168
:103990008093F1002197FFEFAF1ABF0ACECFFC0151
:1039A0009B018091A3029091A4028617970718F0BB
:1039B000672B61F0C90140E0009771F441110CC020
:1039C0008091E80082FF35C080E008958091E80092
:1039D0008E778093E800EECF20919C022223A9F1FC
:1039E0002530A9F12091E80023FD2DC02091E800A9
:1039F00022FDE6CF2091E80020FFDECF3091F300DA
:103A00002091F200009719F02830310558F041E07C
:103A10002830310509F040E02091E8002E7720930E
:103A2000E800CACF41914093F10001972F5F3F4FCB
:103A3000E9CF80919C02882341F0853041F080914C
:103A4000E80083FFBDCF81E0089582E0089583E020
:103A50000895FC019B018091A3029091A402861716
:103A6000970718F0672B61F0C90140E0009771F4E7
:103A700041110CC08091E80082FF36C080E00895BB
:103A80008091E8008E778093E800EECF20919C0231
:103A90002223B1F12530B1F12091E80023FD2EC0A1
:103AA0002091E80022FDE6CF2091E80020FFDECF44
:103AB0003091F3002091F200009719F02830310581
:103AC00058F041E02830310509F040E02091E8004D
:103AD0002E772093E800CACF44914093F1003196AD
:103AE00001972F5F3F4FE8CF80919C02882341F0E0
:103AF000853041F08091E80083FFBCCF81E00895DC
:103B000082E0089583E00895982F973028F08F7011
:103B10008093E90081E008959093E900242F762FA7
:103B200050E0981731F07091EC002091ED00509129
:103B3000F00021FD02C09F5FE8CF3091EB003E7F97
:103B40003093EB003091ED003D7F3093ED003091EC
:103B5000EB0031603093EB007093EC002093ED00AC
:103B60005093F0002091EE0027FDE5CF80E008950E
:103B700080919D0287FF13C08091E80082FF06C0FC
:103B80008091E8008B778093E80004C080919C02CC
:103B90008111F2CF089580919C028823D9F38091FE
:103BA000E80080FFF8CF8091E8008E77ECCF20917D
:103BB000E4003091E50095E6A9018091EC00817068
:103BC000882331F08091E80080FF06C080E00895EE
:103BD0002091E80022FD1BC080919C02882391F077
:103BE000853091F08091EB0085FD10C02091E400BC
:103BF0003091E5004217530701F391509111DCCF4A
:103C000084E0089582E0089583E0089581E00895B6
:103C10000E94771E0E947F1EE0EEF0E080818160AE
:103C20008083E8EDF0E080818F77808319BCA7ED79
:103C3000B0E08C918E7F8C9380818F7E80831092F8
:103C40009B0208950F931F93CF93DF930E94771EDB
:103C50000E947F1EC8EDD0E088818F77888388819D
:103C60008068888388818F7D888319BC10929C022C
:103C70001092980210929A021092990200EE10E0AF
:103C8000F80180818B7F808388818160888342E016
:103C900060E080E00E94841DE1EEF0E080818E7F94
:103CA0008083E2EEF0E080818160808380818860A3
:103CB0008083F80180818E7F808388818061888302
:103CC000DF91CF911F910F910895E8EDF0E0808191
:103CD0008F7E8083E7EDF0E080818160808384E0E7
:103CE00082BF81E080939B020E94221E0895E8ED2E
:103CF000F0E080818E7F80831092E2000895109220
:103D0000DA001092E10008951F920F920FB60F9201
:103D100011242F933F934F935F936F937F938F93D0
:103D20009F93AF93BF93EF93FF938091E10082FF46
:103D30000BC08091E20082FF07C08091E1008B7F81
:103D40008093E1000E94E7208091DA0080FF19C093
:103D50008091D80080FF15C08091DA008E7F80931B
:103D6000DA008091D90080FF94C080E189BD82E1B2
:103D700089BD09B400FEFDCF81E080939C020E94C2
:103D8000CC1A8091E10080FF19C08091E20080FF91
:103D900015C08091E2008E7F8093E2008091E20066
:103DA00080618093E2008091D80080628093D80087
:103DB00019BC85E080939C020E94E01A8091E1008A
:103DC00084FF29C08091E20084FF25C080E189BD85
:103DD00082E189BD09B400FEFDCF8091D8008F7DBE
:103DE0008093D8008091E1008F7E8093E1008091E4
:103DF000E2008F7E8093E2008091E20081608093F8
:103E0000E20080919802882309F449C084E08093FD
:103E10009C020E94E91A8091E10083FF29C08091F1
:103E2000E20083FF25C08091E100877F8093E1005D
:103E300082E080939C02109298028091E1008E7F34
:103E40008093E1008091E2008E7F8093E200809178
:103E5000E20080618093E20042E060E080E00E9446
:103E6000841D8091F00088608093F0000E94DD1A2C
:103E7000FF91EF91BF91AF919F918F917F916F9142
:103E80005F914F913F912F910F900FBE0F901F9018
:103E9000189519BC10929C020E94DA1A72CF809178
:103EA000E30087FF02C083E0B2CF81E0B0CF1F9272
:103EB0000F920FB60F921124FF920F931F932F931F
:103EC0003F934F935F936F937F938F939F93AF93A2
:103ED000BF93CF93DF93EF93FF9309EE10E0F801C8
:103EE0008081C091EC00C795CC27C7958F70FC2EC0
:103EF000F82A1082C0EFD0E08881877F8883789489
:103F00000E94A01FF8011082888188608883CF2DCD
:103F1000CF70C083FF91EF91DF91CF91BF91AF91AF
:103F20009F918F917F916F915F914F913F912F91D1
:103F30001F910F91FF900F900FBE0F901F9018953B
:103F4000AAE2B0E0E6EAFFE10C942B218DE992E0D1
:103F5000FC0101962091F100208322E0853A92072E
:103F6000B9F70E94091B8091E80083FF38C0809157
:103F70009D0290919E029A3090F5E92FF0E0E85A68
:103F8000FD4D0C941621803889F0823841F58091DE
:103F9000A1028F70873018F58093E9008091EB00C3
:103FA00085FB882780F91092E90006C0809199026C
:103FB00090919A02911182609091E800977F90937E
:103FC000E8008093F1001092F1008091E8008E7774
:103FD00023C0811116C080919F02813011F1809120
:103FE000E80083FF0AC08091E800877F8093E800A3
:103FF0008091EB0080628093EB00AA96E3E00C9442
:104000004721823061F780919F02882389F01092C6
:10401000E9008091E800877F8093E8000E94B81D46
:10402000DECF81E0933009F080E080939A02EFCFF9
:104030008091A1028F702FEF280F263080F6809399
:10404000E9002091EB0020FFE2CF933031F4809122
:10405000EB0080628093EB00DACF9091EB009061EF
:104060009093EB0021E030E0A90102C0440F551FFE
:104070008A95E2F74093EA001092EA008091EB0003
:104080008860E8CF8111ABCF10919F021F7780919C
:10409000E3008078812B8093E3008091E800877FA4
:1040A0008093E8000E94B81D8091E80080FFFCCF5B
:1040B0008091E30080688093E30083E0111101C0E8
:1040C00082E080939C028BCF8058823008F087CFAB
:1040D00080919F029091A0028C3D53E0950799F545
:1040E00083E08A838AE289834FB7F894DE011396CE
:1040F00020E03EE051E2E32FF0E05093570084913E
:1041000020FF03C082958F703F5F8F708A30C8F0A8
:10411000895C90E08D939D932F5F243161F74FBFB1
:104120008091E800877F8093E8006AE270E0CE012A
:1041300001960E94CF1C8091E8008B778093E80065
:104140004ECF805DE6CF6091A1027091A202AE01D8
:104150004F5F5F4F0E94091CBC01892B09F43FCFC0
:104160008091E800877F8093E80089819A810E948E
:10417000291DE1CF803809F032CF8091E800877F98
:104180008093E800809198028093F1001ECF811106
:1041900026CF90919F02923008F021CF8091E800C5
:1041A000877F8093E800909398020E94B81D8091C9
:1041B0009802882331F084E080939C020E94F41AD4
:1041C0000ECF8091E30087FDF6CF81E0F5CF089513
:1041D000CF9380919C02882399F08091E900C0914F
:1041E000EC00C795CC27C7958F70C82B1092E900BB
:1041F0008091E80083FD0E94A01FCF70C093E9006A
:10420000CF91089597FB072E16F4009407D077FD01
:1042100009D00E94532107FC05D03EF4909581956A
:104220009F4F0895709561957F4F0895EE0FFF1F82
:104230000590F491E02D09942F923F924F925F9256
:104240006F927F928F929F92AF92BF92CF92DF92A6
:10425000EF92FF920F931F93CF93DF93CDB7DEB70B
:10426000CA1BDB0B0FB6F894DEBF0FBECDBF09949F
:104270002A88398848885F846E847D848C849B84F6
:10428000AA84B984C884DF80EE80FD800C811B8104
:10429000AA81B981CE0FD11D0FB6F894DEBF0FBE33
:1042A000CDBFED010895AA1BBB1B51E107C0AA1F9A
:1042B000BB1FA617B70710F0A61BB70B881F991FC7
:1042C0005A95A9F780959095BC01CD010895FB0101
:1042D000DC0104C08D910190801921F441505040BF
:1042E000C8F7881B990B0895FB01DC0102C00190FF
:1042F0000D9241505040D8F70895F999FECF92BDE4
:1043000081BDF89A992780B50895A8E1B0E042E010
:1043100050E00C94C121DC01A40FB51F4150504066
:1043200048F0CB01840F951F2E910E949C21415093
:104330005040D0F70895262FF999FECF92BD81BD48
:10434000F89A019700B4021639F01FBA20BD0FB6D3
:10435000F894FA9AF99A0FBE08950396272F0E94AF
:104360009C210E949B21252F0E949C21242F0C948C
:104370009C210196272F0E949C210C949B21DC01FB
:10438000CB01FC01F999FECF06C0F2BDE1BDF89A60
:10439000319600B40D9241505040B8F70895F8940A
:1043A000FFCF1904190460046004C504E204480442
:1043B0004804E7045E056F056F055A1251125D123D
:1043C0004F12AE12AE124F12AE12AE127912AE12E0
:1043D00084128F12AE12AE12AE12AE124F12AE1285
:1043E000AE124F12AE126B12AE12AE12AC12AC1273
:1043F000AC12AC12AC12AC12AC12AC12AC129A12DF
:10440000AE125A124D12AE12AE12AE12AE12AE1261
:10441000AE12AE12AE12AE12AE129A12AE12AE12B0
:104420004F12AE12A112A112A112A112A112A11239
:10443000A112A112A1129A12001474140814D2131A
:10444000D6130C14DA1310141C14E6136D14EA13AB
:104450002014EE1324144C14F21328145314F813DC
:104460002E143614DE131414E2131814FC13321431
:1044700042145C146B14CC1304147B141F15251503
:1044800028152E154315431543154315431543159C
:1044900043154315311536153A1540155115571565
:1044A0005B159017961780178A179C17A217A817E5
:1044B000C31FE91FEF1FE91FEF1F42206420EF1FFA
:0444C000BA20C72037
:1044C4001A023A02280850011E0A1401791AB51A70
:1044D400AE1AA71AA01A01E200E900EA00B500B674
:1044E40000B700CD008301CC008A01920194012120
:1044F40002230224022502260227022A02B300B460
:10450400006F0070009F01CB019F02A002E200E94E
:1045140000EA00B500B600B700CD008301CC008AE4
:10452400019201940121022302240225022602277A
:10453400022A02B300B4006F0070009F01CB019FF8
:1045440002A002946697C6343500FF010001000002
:0A455400FFFF0000010001FF00005E
:00000001FF
